:1003520053595354454D2052454144592E20547906
:100362007065206672616D65206C696B653A203C30
:1003720030312C30312C30323E0D0A0041434B3AA1
:100382002050756D7020557064617465640D0A00AB
:100392003C41434B3E0041434B3A204C69676874F1
:1003A200205365742E204272696768746E65737398
:1003B2003A2000555044415445440D0A0041434BF4
:1003C2003A2046656564696E6720446F6E650D0A62
:1003D2000041434B3A20446973706C617920536346
:1003E200686564756C6520557064617465640D0A96
:1003F200004552523A20556E6B6E6F776E204465FF
:10040200766963650D0A003C4552523E00455252E0
:100412003A20436865636B73756D204661696C0DA4
:020422000A00CE
:0505EC00014900C100FF
:1005B8001205D47BFF7A03795212059375A0FF3098
:0C05C80000FD120026C200E4F54980F39B
:0300230002054D86
:0D054D00C0E0C0D075D000C000C006C007DF
:10055A0030982BAF99C298BF3C05754900801FBFE0
:10056A003E0B74212549F87600D2008011E549C373
:0E057A009427500AAE49054974212EF8A607B1
:0B058800D007D006D000D0D0D0E03269
:10002600754A00754B00754C21E4F559F55AFB12DB
:10003600042A8E4D8F4EE54EF47003E54DF47003A1
:100046000201EA1204288E4F8F50E4F551F552F55D
:1000560053F554F555F556E54E6401454D7043FB91
:1000660012042A8E578F58E54E2550FFE54D354F21
:10007600FE7C017D001202168C598D5AE55A655890
:100086007004E559655760030201D8E550640145DF
:100096004F7003C38001D392A07BFF7A03797E025F
:1000A60001BCE54E6402454D7057FB12042A12044A
:1000B600248E578F58E54E2550FFE54D354FFEE50A
:1000C600522FFFE5513EFE7C017D001202168C592F
:1000D6008D5AE55A65587004E55965576003020163
:1000E600D8E5506401454F7003D38001C392A17BCC
:1000F600FF7A0379981205937BFF7A0379B502019B
:10010600BCE54E6403454D704BFB12042A120424D1
:100116008E578F58E54E2550FFE54D354FFEE5527B
:100126002FFFE5513EFE7C017D001202168C598D93
:100136005AE55A65587004E559655760030201D8B7
:10014600D2A27FF47E01120003C2A27BFF7A03795A
:10015600BF0201BCE54E6405454D7065FB12042ADD
:100166001204248E538F541204288E558F5612046F
:10017600288E578F58E54E2550FFE54D354FFEE545
:10018600522FFFE5513EFEE5542FFFE5533EFEE5B7
:10019600562FFFE5553EFE7C017D001202168C5956
:1001A6008D5AE55A65587004E55965577024B2A30F
:1001B6007BFF7A0379D31205937BFF7A03799280CA
:1001C600207BFF7A0379F31205937BFF7A04790982
:1001D600800F7BFF7A04790F1205937BFF7A0479EF
:0401E6000912059362
:0101EA0022F2
:0A0424008E518F527B007A00794A56
:06042E008B5B8A5C895D16
:10043400E4F55EF55F12024C8B608A6189621201F9
:10044400EB70057EFF7FFF22AB60AA61A9621201F7
:10045400EBB42C0D74012562F562E43561F561801D
:10046400E7AB60AA61A9621201EBFFC39430403389
:10047400EFD39439502DEF3395E0FEEF24D0FBEE0B
:1004840034FFFAAE5EAF5F7C007D0A120204EF2BEC
:10049400F55FEE3AF55E74012562F562E43561F5C7
:1004A4006180BEAB60AA61A962C003C002C001AB97
:0C04B4005BAA5CA95D12026CAE5EAF5F3B
:0104C0002219
:1005D400758920758DFD759850D2AFD2ACD28E221C
:0805E4008F993099FDC29922A4
:100593008B5B8A5C895DAB5BAA5CA95D1201EB6036
:1005A30013055DE55D7002055C14F91201EBFF12A2
:0505B30005E480E222D6
:10000300E4FDFCC3ED9FEC9E5015E4FBFA0BBB0033
:0F001300010AEB64784A70F50DBD00010C80E422
:0100220022BB
:030000000204C136
:0C04C100787FE4F6D8FD75816202050822
:1001EB00BB010689828A83E0225002E722BBFE0212
:0901FB00E32289828A83E4932245
:10020400EF8DF0A4A8F0CF8CF0A428CE8DF0A42E0E
:02021400FE22C8
:10021600C2D5EC30E709B2D5E4C39DFDE49CFCEE03
:1002260030E715B2D5E4C39FFFE49EFE1202BBC3BE
:10023600E49DFDE49CFC80031202BB30D507C3E4B9
:060246009FFFE49EFE2272
:10024C00BB010789828A830203225005E9F8020365
:10025C0010BBFE05E9F802033489828A8302034647
:10026C00BB011A89828A83D0F0D0E0F8D0E0F9D0B3
:10027C00E0FAD0E0FBE8C0E0C0F002032B5016E936
:10028C00F8D083D082D0E0F9D0E0FAD0E0FBC08285
:10029C00C083020319BBFE16E9F8D083D082D0E0EC
:0F02AC00F9D0E0FAD0E0FBC082C08302033D220C
:1004CD000205B8E493A3F8E493A34003F68001F288
:1004DD0008DFF48029E493A3F85407240CC8C33330
:1004ED00C4540F4420C8834004F456800146F6DFFF
:1004FD00E4800B01020408102040809005ECE47E9E
:10050D00019360BCA3FF543F30E509541FFEE493F3
:10051D00A360010ECF54C025E060A840B8E493A3BA
:10052D00FAE493A3F8E493A3C8C582C8CAC583CAE5
:10053D00F0A3C8C582C8CAC583CADFE9DEE780BE9D
:0105F1000009
:1002BB00BC000BBE0029EF8DF084FFADF022E4CC27
:1002CB00F875F008EF2FFFEE33FEEC33FCEE9DECF0
:1002DB00984005FCEE9DFE0FD5F0E9E4CEFD22ED36
:1002EB00F8F5F0EE8420D21CFEADF075F008EF2F80
:1002FB00FFED33FD4007985006D5F0F222C398FD71
:05030B000FD5F0EA220D
:09031000E6FB08E6FA08E6F92212
:09031900EBF608EAF608E9F62209
:09032200E0FBA3E0FAA3E0F922DC
:09032B00EBF0A3EAF0A3E9F022D3
:09033400E2FB08E2FA08E2F922FA
:09033D00EBF208EAF208E9F222F1
:0C034600E493FB740193FA740293F92213
:00000001FF
